{
  "contractName": "Donations",
  "abi": [
    {
      "anonymous": false,
      "inputs": [
        {
          "indexed": true,
          "internalType": "address",
          "name": "donor",
          "type": "address"
        },
        {
          "indexed": false,
          "internalType": "uint256",
          "name": "amount",
          "type": "uint256"
        },
        {
          "indexed": false,
          "internalType": "string",
          "name": "message",
          "type": "string"
        }
      ],
      "name": "DonationReceived",
      "type": "event"
    },
    {
      "inputs": [
        {
          "internalType": "uint256",
          "name": "",
          "type": "uint256"
        }
      ],
      "name": "donations",
      "outputs": [
        {
          "internalType": "uint256",
          "name": "amount",
          "type": "uint256"
        },
        {
          "internalType": "address",
          "name": "donor",
          "type": "address"
        },
        {
          "internalType": "string",
          "name": "message",
          "type": "string"
        }
      ],
      "stateMutability": "view",
      "type": "function"
    },
    {
      "inputs": [],
      "name": "owner",
      "outputs": [
        {
          "internalType": "address",
          "name": "",
          "type": "address"
        }
      ],
      "stateMutability": "view",
      "type": "function"
    },
    {
      "inputs": [
        {
          "internalType": "string",
          "name": "_message",
          "type": "string"
        }
      ],
      "name": "makeDonation",
      "outputs": [],
      "stateMutability": "payable",
      "type": "function"
    },
    {
      "inputs": [],
      "name": "withdrawBalance",
      "outputs": [],
      "stateMutability": "nonpayable",
      "type": "function"
    }
  ],
  "bytecode": "0x6080604052336000806101000a81548173ffffffffffffffffffffffffffffffffffffffff021916908373ffffffffffffffffffffffffffffffffffffffff16021790555034801561005057600080fd5b50610a60806100606000396000f3fe60806040526004361061003f5760003560e01c80635fd8c710146100445780638da5cb5b1461005b578063d7fcf45614610086578063f8626af8146100a2575b600080fd5b34801561005057600080fd5b506100596100e1565b005b34801561006757600080fd5b506100706101d8565b60405161007d919061057f565b60405180910390f35b6100a0600480360381019061009b91906106f4565b6101fc565b005b3480156100ae57600080fd5b506100c960048036038101906100c49190610773565b610382565b6040516100d893929190610837565b60405180910390f35b60008054906101000a900473ffffffffffffffffffffffffffffffffffffffff1673ffffffffffffffffffffffffffffffffffffffff163373ffffffffffffffffffffffffffffffffffffffff161461016f576040517f08c379a0000000000000000000000000000000000000000000000000000000008152600401610166906108e7565b60405180910390fd5b60008054906101000a900473ffffffffffffffffffffffffffffffffffffffff1673ffffffffffffffffffffffffffffffffffffffff166108fc479081150290604051600060405180830381858888f193505050501580156101d5573d6000803e3d6000fd5b50565b60008054906101000a900473ffffffffffffffffffffffffffffffffffffffff1681565b6000341161023f576040517f08c379a000000000000000000000000000000000000000000000000000000000815260040161023690610979565b60405180910390fd5b610247610464565b3481600001818152505033816020019073ffffffffffffffffffffffffffffffffffffffff16908173ffffffffffffffffffffffffffffffffffffffff168152505081816040018190525060018190806001815401808255809150506001900390600052602060002090600302016000909190919091506000820151816000015560208201518160010160006101000a81548173ffffffffffffffffffffffffffffffffffffffff021916908373ffffffffffffffffffffffffffffffffffffffff160217905550604082015181600201908051906020019061032b92919061049b565b5050503373ffffffffffffffffffffffffffffffffffffffff167ffa5658cbb5d60363acba0d281bddcf21cc9e7ea6053267531b4cdc36d5df7a8a3484604051610376929190610999565b60405180910390a25050565b6001818154811061039257600080fd5b90600052602060002090600302016000915090508060000154908060010160009054906101000a900473ffffffffffffffffffffffffffffffffffffffff16908060020180546103e1906109f8565b80601f016020809104026020016040519081016040528092919081815260200182805461040d906109f8565b801561045a5780601f1061042f5761010080835404028352916020019161045a565b820191906000526020600020905b81548152906001019060200180831161043d57829003601f168201915b5050505050905083565b604051806060016040528060008152602001600073ffffffffffffffffffffffffffffffffffffffff168152602001606081525090565b8280546104a7906109f8565b90600052602060002090601f0160209004810192826104c95760008555610510565b82601f106104e257805160ff1916838001178555610510565b82800160010185558215610510579182015b8281111561050f5782518255916020019190600101906104f4565b5b50905061051d9190610521565b5090565b5b8082111561053a576000816000905550600101610522565b5090565b600073ffffffffffffffffffffffffffffffffffffffff82169050919050565b60006105698261053e565b9050919050565b6105798161055e565b82525050565b60006020820190506105946000830184610570565b92915050565b6000604051905090565b600080fd5b600080fd5b600080fd5b600080fd5b6000601f19601f8301169050919050565b7f4e487b7100000000000000000000000000000000000000000000000000000000600052604160045260246000fd5b610601826105b8565b810181811067ffffffffffffffff821117156106205761061f6105c9565b5b80604052505050565b600061063361059a565b905061063f82826105f8565b919050565b600067ffffffffffffffff82111561065f5761065e6105c9565b5b610668826105b8565b9050602081019050919050565b82818337600083830152505050565b600061069761069284610644565b610629565b9050828152602081018484840111156106b3576106b26105b3565b5b6106be848285610675565b509392505050565b600082601f8301126106db576106da6105ae565b5b81356106eb848260208601610684565b91505092915050565b60006020828403121561070a576107096105a4565b5b600082013567ffffffffffffffff811115610728576107276105a9565b5b610734848285016106c6565b91505092915050565b6000819050919050565b6107508161073d565b811461075b57600080fd5b50565b60008135905061076d81610747565b92915050565b600060208284031215610789576107886105a4565b5b60006107978482850161075e565b91505092915050565b6107a98161073d565b82525050565b600081519050919050565b600082825260208201905092915050565b60005b838110156107e95780820151818401526020810190506107ce565b838111156107f8576000848401525b50505050565b6000610809826107af565b61081381856107ba565b93506108238185602086016107cb565b61082c816105b8565b840191505092915050565b600060608201905061084c60008301866107a0565b6108596020830185610570565b818103604083015261086b81846107fe565b9050949350505050565b7f4f6e6c79206f776e65722063616e2063616c6c20746869732066756e6374696f60008201527f6e00000000000000000000000000000000000000000000000000000000000000602082015250565b60006108d16021836107ba565b91506108dc82610875565b604082019050919050565b60006020820190508181036000830152610900816108c4565b9050919050565b7f446f6e6174696f6e20616d6f756e74206d75737420626520677265617465722060008201527f7468616e20300000000000000000000000000000000000000000000000000000602082015250565b60006109636026836107ba565b915061096e82610907565b604082019050919050565b6000602082019050818103600083015261099281610956565b9050919050565b60006040820190506109ae60008301856107a0565b81810360208301526109c081846107fe565b90509392505050565b7f4e487b7100000000000000000000000000000000000000000000000000000000600052602260045260246000fd5b60006002820490506001821680610a1057607f821691505b60208210811415610a2457610a236109c9565b5b5091905056fea26469706673582212209d3b0f91cc168c7491dfa8833412160bdad528548f72422cc48e7aed72f49ce664736f6c634300080b0033",
  "immutableReferences": {},
  "source": "// SPDX-License-Identifier: MIT\r\npragma solidity >=0.4.22 <0.9.0;\r\n\r\ncontract Donations {\r\n    address public owner = msg.sender;\r\n\r\n    struct Donation {\r\n        uint256 amount;\r\n        address donor;\r\n        string message;\r\n    }\r\n\r\n    Donation[] public donations;\r\n\r\n    event DonationReceived(address indexed donor, uint256 amount, string message);\r\n\r\n    modifier onlyOwner() {\r\n        require(msg.sender == owner, \"Only owner can call this function\");\r\n        _;\r\n    }\r\n\r\n    function makeDonation(string memory _message) external payable {\r\n        require(msg.value > 0, \"Donation amount must be greater than 0\");\r\n        \r\n        Donation memory newDonation;\r\n        newDonation.amount = msg.value;\r\n        newDonation.donor = msg.sender;\r\n        newDonation.message = _message;\r\n        \r\n        donations.push(newDonation);\r\n        \r\n        emit DonationReceived(msg.sender, msg.value, _message);\r\n    }\r\n\r\n    function withdrawBalance() external onlyOwner {\r\n        payable(owner).transfer(address(this).balance);\r\n    }\r\n}\r\n",
  "sourcePath": "C:\\blockchain\\contracts\\Donations.sol",
  "compiler": {
    "name": "solc",
    "version": "0.8.11+commit.d7f03943.Emscripten.clang"
  },
  "schemaVersion": "3.4.16",
  "updatedAt": "2024-04-28T17:29:35.034Z",
  "devdoc": {
    "kind": "dev",
    "methods": {},
    "version": 1
  },
  "userdoc": {
    "kind": "user",
    "methods": {},
    "version": 1
  }
}